:0C095B000A08C0F9A4B0999282F88090BC
:10093E00E4FFFEE4FDFC0DBD00010CBC04F8BDFBA4
:0C094E00F50FBF00010EEF64644E70E76F
:01095A00227A
:10080000C2A3D2A6D2A5D2A420A0088509B030A048
:10081000FD801420A108850AB030A1FD800920A226
:1008200009850BB030A2FD12093EC2A4D2A6D2A502
:10083000D2A320A008850CB030A0FD801420A10810
:10084000850DB030A1FD800920A209850EB030A22F
:10085000FD12093EC2A5D2A6D2A4D2A320A008852B
:100860000FB030A0FD801420A1088510B030A1FD8C
:10087000800920A2098511B030A2FD12093EC2A64E
:10088000D2A5D2A4D2A320A00875B0FF30A0FD80CD
:100890000920A10C8508B030A1FD12093E02080014
:1008A00030A20302080075B0FF30A2FD12093E021B
:0208B00008003E
:030000000208B241
:0C08B200787FE4F6D8FD7581110208F98A
:1008BE00020800E493A3F8E493A34003F68001F248
:1008CE0008DFF48029E493A3F85407240CC8C3333B
:1008DE00C4540F4420C8834004F456800146F6DF0A
:1008EE00E4800B010204081020408090095BE47E36
:1008FE00019360BCA3FF543F30E509541FFEE493FF
:10090E00A360010ECF54C025E060A840B8E493A3C5
:10091E00FAE493A3F8E493A3C8C582C8CAC583CAF0
:10092E00F0A3C8C582C8CAC583CADFE9DEE780BEA8
:01096700008F
:00000001FF
