:10080000C2A0D2A3D2B3D2B0C2A1C2A4C2B4C2B158
:10081000D2A2C2A5C2B5C2B27FDC7E05120873C2E5
:10082000A3D2A412086FC2A4C2A2D2A0D2A57FE80C
:100830007E03120873C2B3D2B412086FC2B4C2A549
:10084000D2A3D2B57FE87E03120873C2B0D2B11230
:10085000086FC2B1C2B5D2B3D2B27FE87E0312082C
:0F08600073C2A0C2B0D2A112086FC2A1D2B2223D
:04086F007FF47E0193
:10087300E4FDFCC3ED9FEC9E5015E4FBFA0BBB00BB
:0F088300010ABA01F8BBF4F50DBD00010C80E4C9
:010892002243
:0300000002089360
:0C089300787FE4F6D8FD758107020800AC
:00000001FF
