:030000000208846F
:0C088400787FE4F6D8FD758107020800BB
:10080000209002C2A0209112C2A07F087E00120890
:1008100064D2A07F027E00120864209212C2A07FE0
:10082000067E00120864D2A07F047E0012086420B5
:100830009312C2A07F047E00120864D2A07F067EBD
:1008400000120864209412C2A07F027E0012086485
:10085000D2A07F087E00120864209504D2A080A058
:04086000C2A0809C16
:10086400E4FDFCC3ED9FEC9E5015E4FBFA0BBB00CA
:0F087400010AEB64714A70F50DBD00010C80E4C0
:010883002252
:00000001FF
